{
  "_format": "hh-sol-artifact-1",
  "contractName": "MintMyRun",
  "sourceName": "contracts/MintMyRun.sol",
  "abi": [
    {
      "inputs": [],
      "stateMutability": "nonpayable",
      "type": "constructor"
    },
    {
      "anonymous": false,
      "inputs": [
        {
          "indexed": true,
          "internalType": "address",
          "name": "owner",
          "type": "address"
        },
        {
          "indexed": true,
          "internalType": "address",
          "name": "approved",
          "type": "address"
        },
        {
          "indexed": true,
          "internalType": "uint256",
          "name": "tokenId",
          "type": "uint256"
        }
      ],
      "name": "Approval",
      "type": "event"
    },
    {
      "anonymous": false,
      "inputs": [
        {
          "indexed": true,
          "internalType": "address",
          "name": "owner",
          "type": "address"
        },
        {
          "indexed": true,
          "internalType": "address",
          "name": "operator",
          "type": "address"
        },
        {
          "indexed": false,
          "internalType": "bool",
          "name": "approved",
          "type": "bool"
        }
      ],
      "name": "ApprovalForAll",
      "type": "event"
    },
    {
      "anonymous": false,
      "inputs": [
        {
          "indexed": true,
          "internalType": "address",
          "name": "previousOwner",
          "type": "address"
        },
        {
          "indexed": true,
          "internalType": "address",
          "name": "newOwner",
          "type": "address"
        }
      ],
      "name": "OwnershipTransferred",
      "type": "event"
    },
    {
      "anonymous": false,
      "inputs": [
        {
          "indexed": true,
          "internalType": "address",
          "name": "from",
          "type": "address"
        },
        {
          "indexed": true,
          "internalType": "address",
          "name": "to",
          "type": "address"
        },
        {
          "indexed": true,
          "internalType": "uint256",
          "name": "tokenId",
          "type": "uint256"
        }
      ],
      "name": "Transfer",
      "type": "event"
    },
    {
      "inputs": [],
      "name": "PRICE",
      "outputs": [
        {
          "internalType": "uint256",
          "name": "",
          "type": "uint256"
        }
      ],
      "stateMutability": "view",
      "type": "function"
    },
    {
      "inputs": [
        {
          "internalType": "address",
          "name": "to",
          "type": "address"
        },
        {
          "internalType": "uint256",
          "name": "tokenId",
          "type": "uint256"
        }
      ],
      "name": "approve",
      "outputs": [],
      "stateMutability": "nonpayable",
      "type": "function"
    },
    {
      "inputs": [
        {
          "internalType": "address",
          "name": "owner",
          "type": "address"
        }
      ],
      "name": "balanceOf",
      "outputs": [
        {
          "internalType": "uint256",
          "name": "",
          "type": "uint256"
        }
      ],
      "stateMutability": "view",
      "type": "function"
    },
    {
      "inputs": [
        {
          "internalType": "uint256",
          "name": "tokenId",
          "type": "uint256"
        }
      ],
      "name": "getApproved",
      "outputs": [
        {
          "internalType": "address",
          "name": "",
          "type": "address"
        }
      ],
      "stateMutability": "view",
      "type": "function"
    },
    {
      "inputs": [
        {
          "internalType": "address",
          "name": "owner",
          "type": "address"
        },
        {
          "internalType": "address",
          "name": "operator",
          "type": "address"
        }
      ],
      "name": "isApprovedForAll",
      "outputs": [
        {
          "internalType": "bool",
          "name": "",
          "type": "bool"
        }
      ],
      "stateMutability": "view",
      "type": "function"
    },
    {
      "inputs": [
        {
          "internalType": "string[]",
          "name": "uris",
          "type": "string[]"
        }
      ],
      "name": "mint",
      "outputs": [],
      "stateMutability": "payable",
      "type": "function"
    },
    {
      "inputs": [],
      "name": "name",
      "outputs": [
        {
          "internalType": "string",
          "name": "",
          "type": "string"
        }
      ],
      "stateMutability": "view",
      "type": "function"
    },
    {
      "inputs": [],
      "name": "owner",
      "outputs": [
        {
          "internalType": "address",
          "name": "",
          "type": "address"
        }
      ],
      "stateMutability": "view",
      "type": "function"
    },
    {
      "inputs": [
        {
          "internalType": "uint256",
          "name": "tokenId",
          "type": "uint256"
        }
      ],
      "name": "ownerOf",
      "outputs": [
        {
          "internalType": "address",
          "name": "",
          "type": "address"
        }
      ],
      "stateMutability": "view",
      "type": "function"
    },
    {
      "inputs": [],
      "name": "renounceOwnership",
      "outputs": [],
      "stateMutability": "nonpayable",
      "type": "function"
    },
    {
      "inputs": [
        {
          "internalType": "address",
          "name": "from",
          "type": "address"
        },
        {
          "internalType": "address",
          "name": "to",
          "type": "address"
        },
        {
          "internalType": "uint256",
          "name": "tokenId",
          "type": "uint256"
        }
      ],
      "name": "safeTransferFrom",
      "outputs": [],
      "stateMutability": "nonpayable",
      "type": "function"
    },
    {
      "inputs": [
        {
          "internalType": "address",
          "name": "from",
          "type": "address"
        },
        {
          "internalType": "address",
          "name": "to",
          "type": "address"
        },
        {
          "internalType": "uint256",
          "name": "tokenId",
          "type": "uint256"
        },
        {
          "internalType": "bytes",
          "name": "_data",
          "type": "bytes"
        }
      ],
      "name": "safeTransferFrom",
      "outputs": [],
      "stateMutability": "nonpayable",
      "type": "function"
    },
    {
      "inputs": [],
      "name": "saleIsActive",
      "outputs": [
        {
          "internalType": "bool",
          "name": "",
          "type": "bool"
        }
      ],
      "stateMutability": "view",
      "type": "function"
    },
    {
      "inputs": [
        {
          "internalType": "address",
          "name": "operator",
          "type": "address"
        },
        {
          "internalType": "bool",
          "name": "approved",
          "type": "bool"
        }
      ],
      "name": "setApprovalForAll",
      "outputs": [],
      "stateMutability": "nonpayable",
      "type": "function"
    },
    {
      "inputs": [
        {
          "internalType": "bool",
          "name": "saleIsActive_",
          "type": "bool"
        }
      ],
      "name": "setSaleIsActive",
      "outputs": [],
      "stateMutability": "nonpayable",
      "type": "function"
    },
    {
      "inputs": [
        {
          "internalType": "bytes4",
          "name": "interfaceId",
          "type": "bytes4"
        }
      ],
      "name": "supportsInterface",
      "outputs": [
        {
          "internalType": "bool",
          "name": "",
          "type": "bool"
        }
      ],
      "stateMutability": "view",
      "type": "function"
    },
    {
      "inputs": [],
      "name": "symbol",
      "outputs": [
        {
          "internalType": "string",
          "name": "",
          "type": "string"
        }
      ],
      "stateMutability": "view",
      "type": "function"
    },
    {
      "inputs": [
        {
          "internalType": "uint256",
          "name": "tokenId",
          "type": "uint256"
        }
      ],
      "name": "tokenURI",
      "outputs": [
        {
          "internalType": "string",
          "name": "",
          "type": "string"
        }
      ],
      "stateMutability": "view",
      "type": "function"
    },
    {
      "inputs": [],
      "name": "totalSupply",
      "outputs": [
        {
          "internalType": "uint256",
          "name": "",
          "type": "uint256"
        }
      ],
      "stateMutability": "view",
      "type": "function"
    },
    {
      "inputs": [
        {
          "internalType": "address",
          "name": "from",
          "type": "address"
        },
        {
          "internalType": "address",
          "name": "to",
          "type": "address"
        },
        {
          "internalType": "uint256",
          "name": "tokenId",
          "type": "uint256"
        }
      ],
      "name": "transferFrom",
      "outputs": [],
      "stateMutability": "nonpayable",
      "type": "function"
    },
    {
      "inputs": [
        {
          "internalType": "address",
          "name": "newOwner",
          "type": "address"
        }
      ],
      "name": "transferOwnership",
      "outputs": [],
      "stateMutability": "nonpayable",
      "type": "function"
    },
    {
      "inputs": [],
      "name": "withdraw",
      "outputs": [],
      "stateMutability": "nonpayable",
      "type": "function"
    }
  ],
  "bytecode": "0x60806040526000600a60006101000a81548160ff0219169083151502179055503480156200002c57600080fd5b506040518060400160405280600981526020017f4d696e744d7952756e00000000000000000000000000000000000000000000008152506040518060400160405280600381526020017f4d4d5200000000000000000000000000000000000000000000000000000000008152508160009080519060200190620000b1929190620001c9565b508060019080519060200190620000ca929190620001c9565b5050506001600681905550620000f5620000e9620000fb60201b60201c565b6200010360201b60201c565b620002de565b600033905090565b6000600860009054906101000a900473ffffffffffffffffffffffffffffffffffffffff16905081600860006101000a81548173ffffffffffffffffffffffffffffffffffffffff021916908373ffffffffffffffffffffffffffffffffffffffff1602179055508173ffffffffffffffffffffffffffffffffffffffff168173ffffffffffffffffffffffffffffffffffffffff167f8be0079c531659141344cd1fd0a4f28419497f9722a3daafe3b4186f6b6457e060405160405180910390a35050565b828054620001d790620002a8565b90600052602060002090601f016020900481019282620001fb576000855562000247565b82601f106200021657805160ff191683800117855562000247565b8280016001018555821562000247579182015b828111156200024657825182559160200191906001019062000229565b5b5090506200025691906200025a565b5090565b5b80821115620002755760008160009055506001016200025b565b5090565b7f4e487b7100000000000000000000000000000000000000000000000000000000600052602260045260246000fd5b60006002820490506001821680620002c157607f821691505b60208210811415620002d857620002d762000279565b5b50919050565b61398b80620002ee6000396000f3fe6080604052600436106101355760003560e01c806370a08231116100ab578063a22cb4651161006f578063a22cb465146103f3578063b88d4fde1461041c578063c87b56dd14610445578063e985e9c514610482578063eb8d2444146104bf578063f2fde38b146104ea57610135565b806370a082311461031e578063715018a61461035b5780638d859f3e146103725780638da5cb5b1461039d57806395d89b41146103c857610135565b806318160ddd116100fd57806318160ddd1461023157806323b872dd1461025c5780633ccfd60b1461028557806342842e0e1461029c5780635768f271146102c55780636352211e146102e157610135565b806301ffc9a71461013a57806302c889891461017757806306fdde03146101a0578063081812fc146101cb578063095ea7b314610208575b600080fd5b34801561014657600080fd5b50610161600480360381019061015c91906121e7565b610513565b60405161016e919061222f565b60405180910390f35b34801561018357600080fd5b5061019e60048036038101906101999190612276565b6105f5565b005b3480156101ac57600080fd5b506101b561068e565b6040516101c2919061233c565b60405180910390f35b3480156101d757600080fd5b506101f260048036038101906101ed9190612394565b610720565b6040516101ff9190612402565b60405180910390f35b34801561021457600080fd5b5061022f600480360381019061022a9190612449565b6107a5565b005b34801561023d57600080fd5b506102466108bd565b6040516102539190612498565b60405180910390f35b34801561026857600080fd5b50610283600480360381019061027e91906124b3565b6108ce565b005b34801561029157600080fd5b5061029a61092e565b005b3480156102a857600080fd5b506102c360048036038101906102be91906124b3565b610a19565b005b6102df60048036038101906102da9190612721565b610a39565b005b3480156102ed57600080fd5b5061030860048036038101906103039190612394565b610ba3565b6040516103159190612402565b60405180910390f35b34801561032a57600080fd5b506103456004803603810190610340919061276a565b610c55565b6040516103529190612498565b60405180910390f35b34801561036757600080fd5b50610370610d0d565b005b34801561037e57600080fd5b50610387610d95565b6040516103949190612498565b60405180910390f35b3480156103a957600080fd5b506103b2610da0565b6040516103bf9190612402565b60405180910390f35b3480156103d457600080fd5b506103dd610dca565b6040516103ea919061233c565b60405180910390f35b3480156103ff57600080fd5b5061041a60048036038101906104159190612797565b610e5c565b005b34801561042857600080fd5b50610443600480360381019061043e9190612878565b610e72565b005b34801561045157600080fd5b5061046c60048036038101906104679190612394565b610ed4565b604051610479919061233c565b60405180910390f35b34801561048e57600080fd5b506104a960048036038101906104a491906128fb565b610ee6565b6040516104b6919061222f565b60405180910390f35b3480156104cb57600080fd5b506104d4610f7a565b6040516104e1919061222f565b60405180910390f35b3480156104f657600080fd5b50610511600480360381019061050c919061276a565b610f8d565b005b60007f80ac58cd000000000000000000000000000000000000000000000000000000007bffffffffffffffffffffffffffffffffffffffffffffffffffffffff1916827bffffffffffffffffffffffffffffffffffffffffffffffffffffffff191614806105de57507f5b5e139f000000000000000000000000000000000000000000000000000000007bffffffffffffffffffffffffffffffffffffffffffffffffffffffff1916827bffffffffffffffffffffffffffffffffffffffffffffffffffffffff1916145b806105ee57506105ed82611085565b5b9050919050565b6105fd6110ef565b73ffffffffffffffffffffffffffffffffffffffff1661061b610da0565b73ffffffffffffffffffffffffffffffffffffffff1614610671576040517f08c379a000000000000000000000000000000000000000000000000000000000815260040161066890612987565b60405180910390fd5b80600a60006101000a81548160ff02191690831515021790555050565b60606000805461069d906129d6565b80601f01602080910402602001604051908101604052809291908181526020018280546106c9906129d6565b80156107165780601f106106eb57610100808354040283529160200191610716565b820191906000526020600020905b8154815290600101906020018083116106f957829003601f168201915b5050505050905090565b600061072b826110f7565b61076a576040517f08c379a000000000000000000000000000000000000000000000000000000000815260040161076190612a7a565b60405180910390fd5b6004600083815260200190815260200160002060009054906101000a900473ffffffffffffffffffffffffffffffffffffffff169050919050565b60006107b082610ba3565b90508073ffffffffffffffffffffffffffffffffffffffff168373ffffffffffffffffffffffffffffffffffffffff161415610821576040517f08c379a000000000000000000000000000000000000000000000000000000000815260040161081890612b0c565b60405180910390fd5b8073ffffffffffffffffffffffffffffffffffffffff166108406110ef565b73ffffffffffffffffffffffffffffffffffffffff16148061086f575061086e816108696110ef565b610ee6565b5b6108ae576040517f08c379a00000000000000000000000000000000000000000000000000000000081526004016108a590612b9e565b60405180910390fd5b6108b88383611163565b505050565b60006108c9600961121c565b905090565b6108df6108d96110ef565b8261122a565b61091e576040517f08c379a000000000000000000000000000000000000000000000000000000000815260040161091590612c30565b60405180910390fd5b610929838383611308565b505050565b6109366110ef565b73ffffffffffffffffffffffffffffffffffffffff16610954610da0565b73ffffffffffffffffffffffffffffffffffffffff16146109aa576040517f08c379a00000000000000000000000000000000000000000000000000000000081526004016109a190612987565b60405180910390fd5b600260065414156109f0576040517f08c379a00000000000000000000000000000000000000000000000000000000081526004016109e790612c9c565b60405180910390fd5b60026006819055506000479050610a0e610a08610da0565b82611564565b506001600681905550565b610a3483838360405180602001604052806000815250610e72565b505050565b60026006541415610a7f576040517f08c379a0000000000000000000000000000000000000000000000000000000008152600401610a7690612c9c565b60405180910390fd5b6002600681905550600a60009054906101000a900460ff16610ad6576040517f08c379a0000000000000000000000000000000000000000000000000000000008152600401610acd90612d08565b60405180910390fd5b80516611c37937e08000610aea9190612d57565b341015610b2c576040517f08c379a0000000000000000000000000000000000000000000000000000000008152600401610b2390612e23565b60405180910390fd5b60005b8151811015610b97576000610b426108bd565b9050610b55610b4f6110ef565b82611658565b610b7981848481518110610b6c57610b6b612e43565b5b6020026020010151611676565b610b8360096116ea565b508080610b8f90612e72565b915050610b2f565b50600160068190555050565b6000806002600084815260200190815260200160002060009054906101000a900473ffffffffffffffffffffffffffffffffffffffff169050600073ffffffffffffffffffffffffffffffffffffffff168173ffffffffffffffffffffffffffffffffffffffff161415610c4c576040517f08c379a0000000000000000000000000000000000000000000000000000000008152600401610c4390612f2d565b60405180910390fd5b80915050919050565b60008073ffffffffffffffffffffffffffffffffffffffff168273ffffffffffffffffffffffffffffffffffffffff161415610cc6576040517f08c379a0000000000000000000000000000000000000000000000000000000008152600401610cbd90612fbf565b60405180910390fd5b600360008373ffffffffffffffffffffffffffffffffffffffff1673ffffffffffffffffffffffffffffffffffffffff168152602001908152602001600020549050919050565b610d156110ef565b73ffffffffffffffffffffffffffffffffffffffff16610d33610da0565b73ffffffffffffffffffffffffffffffffffffffff1614610d89576040517f08c379a0000000000000000000000000000000000000000000000000000000008152600401610d8090612987565b60405180910390fd5b610d936000611700565b565b6611c37937e0800081565b6000600860009054906101000a900473ffffffffffffffffffffffffffffffffffffffff16905090565b606060018054610dd9906129d6565b80601f0160208091040260200160405190810160405280929190818152602001828054610e05906129d6565b8015610e525780601f10610e2757610100808354040283529160200191610e52565b820191906000526020600020905b815481529060010190602001808311610e3557829003601f168201915b5050505050905090565b610e6e610e676110ef565b83836117c6565b5050565b610e83610e7d6110ef565b8361122a565b610ec2576040517f08c379a0000000000000000000000000000000000000000000000000000000008152600401610eb990612c30565b60405180910390fd5b610ece84848484611933565b50505050565b6060610edf8261198f565b9050919050565b6000600560008473ffffffffffffffffffffffffffffffffffffffff1673ffffffffffffffffffffffffffffffffffffffff16815260200190815260200160002060008373ffffffffffffffffffffffffffffffffffffffff1673ffffffffffffffffffffffffffffffffffffffff16815260200190815260200160002060009054906101000a900460ff16905092915050565b600a60009054906101000a900460ff1681565b610f956110ef565b73ffffffffffffffffffffffffffffffffffffffff16610fb3610da0565b73ffffffffffffffffffffffffffffffffffffffff1614611009576040517f08c379a000000000000000000000000000000000000000000000000000000000815260040161100090612987565b60405180910390fd5b600073ffffffffffffffffffffffffffffffffffffffff168173ffffffffffffffffffffffffffffffffffffffff161415611079576040517f08c379a000000000000000000000000000000000000000000000000000000000815260040161107090613051565b60405180910390fd5b61108281611700565b50565b60007f01ffc9a7000000000000000000000000000000000000000000000000000000007bffffffffffffffffffffffffffffffffffffffffffffffffffffffff1916827bffffffffffffffffffffffffffffffffffffffffffffffffffffffff1916149050919050565b600033905090565b60008073ffffffffffffffffffffffffffffffffffffffff166002600084815260200190815260200160002060009054906101000a900473ffffffffffffffffffffffffffffffffffffffff1673ffffffffffffffffffffffffffffffffffffffff1614159050919050565b816004600083815260200190815260200160002060006101000a81548173ffffffffffffffffffffffffffffffffffffffff021916908373ffffffffffffffffffffffffffffffffffffffff160217905550808273ffffffffffffffffffffffffffffffffffffffff166111d683610ba3565b73ffffffffffffffffffffffffffffffffffffffff167f8c5be1e5ebec7d5bd14f71427d1e84f3dd0314c0f7b2291e5b200ac8c7c3b92560405160405180910390a45050565b600081600001549050919050565b6000611235826110f7565b611274576040517f08c379a000000000000000000000000000000000000000000000000000000000815260040161126b906130e3565b60405180910390fd5b600061127f83610ba3565b90508073ffffffffffffffffffffffffffffffffffffffff168473ffffffffffffffffffffffffffffffffffffffff1614806112ee57508373ffffffffffffffffffffffffffffffffffffffff166112d684610720565b73ffffffffffffffffffffffffffffffffffffffff16145b806112ff57506112fe8185610ee6565b5b91505092915050565b8273ffffffffffffffffffffffffffffffffffffffff1661132882610ba3565b73ffffffffffffffffffffffffffffffffffffffff161461137e576040517f08c379a000000000000000000000000000000000000000000000000000000000815260040161137590613175565b60405180910390fd5b600073ffffffffffffffffffffffffffffffffffffffff168273ffffffffffffffffffffffffffffffffffffffff1614156113ee576040517f08c379a00000000000000000000000000000000000000000000000000000000081526004016113e590613207565b60405180910390fd5b6113f9838383611ae1565b611404600082611163565b6001600360008573ffffffffffffffffffffffffffffffffffffffff1673ffffffffffffffffffffffffffffffffffffffff16815260200190815260200160002060008282546114549190613227565b925050819055506001600360008473ffffffffffffffffffffffffffffffffffffffff1673ffffffffffffffffffffffffffffffffffffffff16815260200190815260200160002060008282546114ab919061325b565b92505081905550816002600083815260200190815260200160002060006101000a81548173ffffffffffffffffffffffffffffffffffffffff021916908373ffffffffffffffffffffffffffffffffffffffff160217905550808273ffffffffffffffffffffffffffffffffffffffff168473ffffffffffffffffffffffffffffffffffffffff167fddf252ad1be2c89b69c2b068fc378daa952ba7f163c4a11628f55a4df523b3ef60405160405180910390a4505050565b804710156115a7576040517f08c379a000000000000000000000000000000000000000000000000000000000815260040161159e906132fd565b60405180910390fd5b60008273ffffffffffffffffffffffffffffffffffffffff16826040516115cd9061334e565b60006040518083038185875af1925050503d806000811461160a576040519150601f19603f3d011682016040523d82523d6000602084013e61160f565b606091505b5050905080611653576040517f08c379a000000000000000000000000000000000000000000000000000000000815260040161164a906133d5565b60405180910390fd5b505050565b611672828260405180602001604052806000815250611ae6565b5050565b61167f826110f7565b6116be576040517f08c379a00000000000000000000000000000000000000000000000000000000081526004016116b590613467565b60405180910390fd5b806007600084815260200190815260200160002090805190602001906116e59291906120d8565b505050565b6001816000016000828254019250508190555050565b6000600860009054906101000a900473ffffffffffffffffffffffffffffffffffffffff16905081600860006101000a81548173ffffffffffffffffffffffffffffffffffffffff021916908373ffffffffffffffffffffffffffffffffffffffff1602179055508173ffffffffffffffffffffffffffffffffffffffff168173ffffffffffffffffffffffffffffffffffffffff167f8be0079c531659141344cd1fd0a4f28419497f9722a3daafe3b4186f6b6457e060405160405180910390a35050565b8173ffffffffffffffffffffffffffffffffffffffff168373ffffffffffffffffffffffffffffffffffffffff161415611835576040517f08c379a000000000000000000000000000000000000000000000000000000000815260040161182c906134d3565b60405180910390fd5b80600560008573ffffffffffffffffffffffffffffffffffffffff1673ffffffffffffffffffffffffffffffffffffffff16815260200190815260200160002060008473ffffffffffffffffffffffffffffffffffffffff1673ffffffffffffffffffffffffffffffffffffffff16815260200190815260200160002060006101000a81548160ff0219169083151502179055508173ffffffffffffffffffffffffffffffffffffffff168373ffffffffffffffffffffffffffffffffffffffff167f17307eab39ab6107e8899845ad3d59bd9653f200f220920489ca2b5937696c3183604051611926919061222f565b60405180910390a3505050565b61193e848484611308565b61194a84848484611b41565b611989576040517f08c379a000000000000000000000000000000000000000000000000000000000815260040161198090613565565b60405180910390fd5b50505050565b606061199a826110f7565b6119d9576040517f08c379a00000000000000000000000000000000000000000000000000000000081526004016119d0906135f7565b60405180910390fd5b60006007600084815260200190815260200160002080546119f9906129d6565b80601f0160208091040260200160405190810160405280929190818152602001828054611a25906129d6565b8015611a725780601f10611a4757610100808354040283529160200191611a72565b820191906000526020600020905b815481529060010190602001808311611a5557829003601f168201915b505050505090506000611a83611cd8565b9050600081511415611a99578192505050611adc565b600082511115611ace578082604051602001611ab6929190613653565b60405160208183030381529060405292505050611adc565b611ad784611cef565b925050505b919050565b505050565b611af08383611d96565b611afd6000848484611b41565b611b3c576040517f08c379a0000000000000000000000000000000000000000000000000000000008152600401611b3390613565565b60405180910390fd5b505050565b6000611b628473ffffffffffffffffffffffffffffffffffffffff16611f64565b15611ccb578373ffffffffffffffffffffffffffffffffffffffff1663150b7a02611b8b6110ef565b8786866040518563ffffffff1660e01b8152600401611bad94939291906136cc565b602060405180830381600087803b158015611bc757600080fd5b505af1925050508015611bf857506040513d601f19601f82011682018060405250810190611bf5919061372d565b60015b611c7b573d8060008114611c28576040519150601f19603f3d011682016040523d82523d6000602084013e611c2d565b606091505b50600081511415611c73576040517f08c379a0000000000000000000000000000000000000000000000000000000008152600401611c6a90613565565b60405180910390fd5b805181602001fd5b63150b7a0260e01b7bffffffffffffffffffffffffffffffffffffffffffffffffffffffff1916817bffffffffffffffffffffffffffffffffffffffffffffffffffffffff191614915050611cd0565b600190505b949350505050565b606060405180602001604052806000815250905090565b6060611cfa826110f7565b611d39576040517f08c379a0000000000000000000000000000000000000000000000000000000008152600401611d30906137cc565b60405180910390fd5b6000611d43611cd8565b90506000815111611d635760405180602001604052806000815250611d8e565b80611d6d84611f77565b604051602001611d7e929190613653565b6040516020818303038152906040525b915050919050565b600073ffffffffffffffffffffffffffffffffffffffff168273ffffffffffffffffffffffffffffffffffffffff161415611e06576040517f08c379a0000000000000000000000000000000000000000000000000000000008152600401611dfd90613838565b60405180910390fd5b611e0f816110f7565b15611e4f576040517f08c379a0000000000000000000000000000000000000000000000000000000008152600401611e46906138a4565b60405180910390fd5b611e5b60008383611ae1565b6001600360008473ffffffffffffffffffffffffffffffffffffffff1673ffffffffffffffffffffffffffffffffffffffff1681526020019081526020016000206000828254611eab919061325b565b92505081905550816002600083815260200190815260200160002060006101000a81548173ffffffffffffffffffffffffffffffffffffffff021916908373ffffffffffffffffffffffffffffffffffffffff160217905550808273ffffffffffffffffffffffffffffffffffffffff16600073ffffffffffffffffffffffffffffffffffffffff167fddf252ad1be2c89b69c2b068fc378daa952ba7f163c4a11628f55a4df523b3ef60405160405180910390a45050565b600080823b905060008111915050919050565b60606000821415611fbf576040518060400160405280600181526020017f300000000000000000000000000000000000000000000000000000000000000081525090506120d3565b600082905060005b60008214611ff1578080611fda90612e72565b915050600a82611fea91906138f3565b9150611fc7565b60008167ffffffffffffffff81111561200d5761200c61250b565b5b6040519080825280601f01601f19166020018201604052801561203f5781602001600182028036833780820191505090505b5090505b600085146120cc576001826120589190613227565b9150600a856120679190613924565b6030612073919061325b565b60f81b81838151811061208957612088612e43565b5b60200101907effffffffffffffffffffffffffffffffffffffffffffffffffffffffffffff1916908160001a905350600a856120c591906138f3565b9450612043565b8093505050505b919050565b8280546120e4906129d6565b90600052602060002090601f016020900481019282612106576000855561214d565b82601f1061211f57805160ff191683800117855561214d565b8280016001018555821561214d579182015b8281111561214c578251825591602001919060010190612131565b5b50905061215a919061215e565b5090565b5b8082111561217757600081600090555060010161215f565b5090565b6000604051905090565b600080fd5b600080fd5b60007fffffffff0000000000000000000000000000000000000000000000000000000082169050919050565b6121c48161218f565b81146121cf57600080fd5b50565b6000813590506121e1816121bb565b92915050565b6000602082840312156121fd576121fc612185565b5b600061220b848285016121d2565b91505092915050565b60008115159050919050565b61222981612214565b82525050565b60006020820190506122446000830184612220565b92915050565b61225381612214565b811461225e57600080fd5b50565b6000813590506122708161224a565b92915050565b60006020828403121561228c5761228b612185565b5b600061229a84828501612261565b91505092915050565b600081519050919050565b600082825260208201905092915050565b60005b838110156122dd5780820151818401526020810190506122c2565b838111156122ec576000848401525b50505050565b6000601f19601f8301169050919050565b600061230e826122a3565b61231881856122ae565b93506123288185602086016122bf565b612331816122f2565b840191505092915050565b600060208201905081810360008301526123568184612303565b905092915050565b6000819050919050565b6123718161235e565b811461237c57600080fd5b50565b60008135905061238e81612368565b92915050565b6000602082840312156123aa576123a9612185565b5b60006123b88482850161237f565b91505092915050565b600073ffffffffffffffffffffffffffffffffffffffff82169050919050565b60006123ec826123c1565b9050919050565b6123fc816123e1565b82525050565b600060208201905061241760008301846123f3565b92915050565b612426816123e1565b811461243157600080fd5b50565b6000813590506124438161241d565b92915050565b600080604083850312156124605761245f612185565b5b600061246e85828601612434565b925050602061247f8582860161237f565b9150509250929050565b6124928161235e565b82525050565b60006020820190506124ad6000830184612489565b92915050565b6000806000606084860312156124cc576124cb612185565b5b60006124da86828701612434565b93505060206124eb86828701612434565b92505060406124fc8682870161237f565b9150509250925092565b600080fd5b7f4e487b7100000000000000000000000000000000000000000000000000000000600052604160045260246000fd5b612543826122f2565b810181811067ffffffffffffffff821117156125625761256161250b565b5b80604052505050565b600061257561217b565b9050612581828261253a565b919050565b600067ffffffffffffffff8211156125a1576125a061250b565b5b602082029050602081019050919050565b600080fd5b600080fd5b600067ffffffffffffffff8211156125d7576125d661250b565b5b6125e0826122f2565b9050602081019050919050565b82818337600083830152505050565b600061260f61260a846125bc565b61256b565b90508281526020810184848401111561262b5761262a6125b7565b5b6126368482856125ed565b509392505050565b600082601f83011261265357612652612506565b5b81356126638482602086016125fc565b91505092915050565b600061267f61267a84612586565b61256b565b905080838252602082019050602084028301858111156126a2576126a16125b2565b5b835b818110156126e957803567ffffffffffffffff8111156126c7576126c6612506565b5b8086016126d4898261263e565b855260208501945050506020810190506126a4565b5050509392505050565b600082601f83011261270857612707612506565b5b813561271884826020860161266c565b91505092915050565b60006020828403121561273757612736612185565b5b600082013567ffffffffffffffff8111156127555761275461218a565b5b612761848285016126f3565b91505092915050565b6000602082840312156127805761277f612185565b5b600061278e84828501612434565b91505092915050565b600080604083850312156127ae576127ad612185565b5b60006127bc85828601612434565b92505060206127cd85828601612261565b9150509250929050565b600067ffffffffffffffff8211156127f2576127f161250b565b5b6127fb826122f2565b9050602081019050919050565b600061281b612816846127d7565b61256b565b905082815260208101848484011115612837576128366125b7565b5b6128428482856125ed565b509392505050565b600082601f83011261285f5761285e612506565b5b813561286f848260208601612808565b91505092915050565b6000806000806080858703121561289257612891612185565b5b60006128a087828801612434565b94505060206128b187828801612434565b93505060406128c28782880161237f565b925050606085013567ffffffffffffffff8111156128e3576128e261218a565b5b6128ef8782880161284a565b91505092959194509250565b6000806040838503121561291257612911612185565b5b600061292085828601612434565b925050602061293185828601612434565b9150509250929050565b7f4f776e61626c653a2063616c6c6572206973206e6f7420746865206f776e6572600082015250565b60006129716020836122ae565b915061297c8261293b565b602082019050919050565b600060208201905081810360008301526129a081612964565b9050919050565b7f4e487b7100000000000000000000000000000000000000000000000000000000600052602260045260246000fd5b600060028204905060018216806129ee57607f821691505b60208210811415612a0257612a016129a7565b5b50919050565b7f4552433732313a20617070726f76656420717565727920666f72206e6f6e657860008201527f697374656e7420746f6b656e0000000000000000000000000000000000000000602082015250565b6000612a64602c836122ae565b9150612a6f82612a08565b604082019050919050565b60006020820190508181036000830152612a9381612a57565b9050919050565b7f4552433732313a20617070726f76616c20746f2063757272656e74206f776e6560008201527f7200000000000000000000000000000000000000000000000000000000000000602082015250565b6000612af66021836122ae565b9150612b0182612a9a565b604082019050919050565b60006020820190508181036000830152612b2581612ae9565b9050919050565b7f4552433732313a20617070726f76652063616c6c6572206973206e6f74206f7760008201527f6e6572206e6f7220617070726f76656420666f7220616c6c0000000000000000602082015250565b6000612b886038836122ae565b9150612b9382612b2c565b604082019050919050565b60006020820190508181036000830152612bb781612b7b565b9050919050565b7f4552433732313a207472616e736665722063616c6c6572206973206e6f74206f60008201527f776e6572206e6f7220617070726f766564000000000000000000000000000000602082015250565b6000612c1a6031836122ae565b9150612c2582612bbe565b604082019050919050565b60006020820190508181036000830152612c4981612c0d565b9050919050565b7f5265656e7472616e637947756172643a207265656e7472616e742063616c6c00600082015250565b6000612c86601f836122ae565b9150612c9182612c50565b602082019050919050565b60006020820190508181036000830152612cb581612c79565b9050919050565b7f53616c65206e6f74206163746976650000000000000000000000000000000000600082015250565b6000612cf2600f836122ae565b9150612cfd82612cbc565b602082019050919050565b60006020820190508181036000830152612d2181612ce5565b9050919050565b7f4e487b7100000000000000000000000000000000000000000000000000000000600052601160045260246000fd5b6000612d628261235e565b9150612d6d8361235e565b9250817fffffffffffffffffffffffffffffffffffffffffffffffffffffffffffffffff0483118215151615612da657612da5612d28565b5b828202905092915050565b7f496e73756666696369656e74207061796d656e742c20302e303035204554482060008201527f706572206974656d000000000000000000000000000000000000000000000000602082015250565b6000612e0d6028836122ae565b9150612e1882612db1565b604082019050919050565b60006020820190508181036000830152612e3c81612e00565b9050919050565b7f4e487b7100000000000000000000000000000000000000000000000000000000600052603260045260246000fd5b6000612e7d8261235e565b91507fffffffffffffffffffffffffffffffffffffffffffffffffffffffffffffffff821415612eb057612eaf612d28565b5b600182019050919050565b7f4552433732313a206f776e657220717565727920666f72206e6f6e657869737460008201527f656e7420746f6b656e0000000000000000000000000000000000000000000000602082015250565b6000612f176029836122ae565b9150612f2282612ebb565b604082019050919050565b60006020820190508181036000830152612f4681612f0a565b9050919050565b7f4552433732313a2062616c616e636520717565727920666f7220746865207a6560008201527f726f206164647265737300000000000000000000000000000000000000000000602082015250565b6000612fa9602a836122ae565b9150612fb482612f4d565b604082019050919050565b60006020820190508181036000830152612fd881612f9c565b9050919050565b7f4f776e61626c653a206e6577206f776e657220697320746865207a65726f206160008201527f6464726573730000000000000000000000000000000000000000000000000000602082015250565b600061303b6026836122ae565b915061304682612fdf565b604082019050919050565b6000602082019050818103600083015261306a8161302e565b9050919050565b7f4552433732313a206f70657261746f7220717565727920666f72206e6f6e657860008201527f697374656e7420746f6b656e0000000000000000000000000000000000000000602082015250565b60006130cd602c836122ae565b91506130d882613071565b604082019050919050565b600060208201905081810360008301526130fc816130c0565b9050919050565b7f4552433732313a207472616e73666572206f6620746f6b656e2074686174206960008201527f73206e6f74206f776e0000000000000000000000000000000000000000000000602082015250565b600061315f6029836122ae565b915061316a82613103565b604082019050919050565b6000602082019050818103600083015261318e81613152565b9050919050565b7f4552433732313a207472616e7366657220746f20746865207a65726f2061646460008201527f7265737300000000000000000000000000000000000000000000000000000000602082015250565b60006131f16024836122ae565b91506131fc82613195565b604082019050919050565b60006020820190508181036000830152613220816131e4565b9050919050565b60006132328261235e565b915061323d8361235e565b9250828210156132505761324f612d28565b5b828203905092915050565b60006132668261235e565b91506132718361235e565b9250827fffffffffffffffffffffffffffffffffffffffffffffffffffffffffffffffff038211156132a6576132a5612d28565b5b828201905092915050565b7f416464726573733a20696e73756666696369656e742062616c616e6365000000600082015250565b60006132e7601d836122ae565b91506132f2826132b1565b602082019050919050565b60006020820190508181036000830152613316816132da565b9050919050565b600081905092915050565b50565b600061333860008361331d565b915061334382613328565b600082019050919050565b60006133598261332b565b9150819050919050565b7f416464726573733a20756e61626c6520746f2073656e642076616c75652c207260008201527f6563697069656e74206d61792068617665207265766572746564000000000000602082015250565b60006133bf603a836122ae565b91506133ca82613363565b604082019050919050565b600060208201905081810360008301526133ee816133b2565b9050919050565b7f45524337323155524953746f726167653a2055524920736574206f66206e6f6e60008201527f6578697374656e7420746f6b656e000000000000000000000000000000000000602082015250565b6000613451602e836122ae565b915061345c826133f5565b604082019050919050565b6000602082019050818103600083015261348081613444565b9050919050565b7f4552433732313a20617070726f766520746f2063616c6c657200000000000000600082015250565b60006134bd6019836122ae565b91506134c882613487565b602082019050919050565b600060208201905081810360008301526134ec816134b0565b9050919050565b7f4552433732313a207472616e7366657220746f206e6f6e20455243373231526560008201527f63656976657220696d706c656d656e7465720000000000000000000000000000602082015250565b600061354f6032836122ae565b915061355a826134f3565b604082019050919050565b6000602082019050818103600083015261357e81613542565b9050919050565b7f45524337323155524953746f726167653a2055524920717565727920666f722060008201527f6e6f6e6578697374656e7420746f6b656e000000000000000000000000000000602082015250565b60006135e16031836122ae565b91506135ec82613585565b604082019050919050565b60006020820190508181036000830152613610816135d4565b9050919050565b600081905092915050565b600061362d826122a3565b6136378185613617565b93506136478185602086016122bf565b80840191505092915050565b600061365f8285613622565b915061366b8284613622565b91508190509392505050565b600081519050919050565b600082825260208201905092915050565b600061369e82613677565b6136a88185613682565b93506136b88185602086016122bf565b6136c1816122f2565b840191505092915050565b60006080820190506136e160008301876123f3565b6136ee60208301866123f3565b6136fb6040830185612489565b818103606083015261370d8184613693565b905095945050505050565b600081519050613727816121bb565b92915050565b60006020828403121561374357613742612185565b5b600061375184828501613718565b91505092915050565b7f4552433732314d657461646174613a2055524920717565727920666f72206e6f60008201527f6e6578697374656e7420746f6b656e0000000000000000000000000000000000602082015250565b60006137b6602f836122ae565b91506137c18261375a565b604082019050919050565b600060208201905081810360008301526137e5816137a9565b9050919050565b7f4552433732313a206d696e7420746f20746865207a65726f2061646472657373600082015250565b60006138226020836122ae565b915061382d826137ec565b602082019050919050565b6000602082019050818103600083015261385181613815565b9050919050565b7f4552433732313a20746f6b656e20616c7265616479206d696e74656400000000600082015250565b600061388e601c836122ae565b915061389982613858565b602082019050919050565b600060208201905081810360008301526138bd81613881565b9050919050565b7f4e487b7100000000000000000000000000000000000000000000000000000000600052601260045260246000fd5b60006138fe8261235e565b91506139098361235e565b925082613919576139186138c4565b5b828204905092915050565b600061392f8261235e565b915061393a8361235e565b92508261394a576139496138c4565b5b82820690509291505056fea26469706673582212206f357f52a97bc63c7a4d3aa7ecf841dcd5177f0ac23f5d1123249bec45f7d8f964736f6c63430008090033",
  "linkReferences": {},
  "deployedLinkReferences": {}
}