{
  "_format": "hh-sol-artifact-1",
  "contractName": "MintMyRun",
  "sourceName": "contracts/MintMyRun.sol",
  "abi": [
    {
      "inputs": [],
      "stateMutability": "nonpayable",
      "type": "constructor"
    },
    {
      "anonymous": false,
      "inputs": [
        {
          "indexed": true,
          "internalType": "address",
          "name": "owner",
          "type": "address"
        },
        {
          "indexed": true,
          "internalType": "address",
          "name": "approved",
          "type": "address"
        },
        {
          "indexed": true,
          "internalType": "uint256",
          "name": "tokenId",
          "type": "uint256"
        }
      ],
      "name": "Approval",
      "type": "event"
    },
    {
      "anonymous": false,
      "inputs": [
        {
          "indexed": true,
          "internalType": "address",
          "name": "owner",
          "type": "address"
        },
        {
          "indexed": true,
          "internalType": "address",
          "name": "operator",
          "type": "address"
        },
        {
          "indexed": false,
          "internalType": "bool",
          "name": "approved",
          "type": "bool"
        }
      ],
      "name": "ApprovalForAll",
      "type": "event"
    },
    {
      "anonymous": false,
      "inputs": [
        {
          "indexed": true,
          "internalType": "address",
          "name": "previousOwner",
          "type": "address"
        },
        {
          "indexed": true,
          "internalType": "address",
          "name": "newOwner",
          "type": "address"
        }
      ],
      "name": "OwnershipTransferred",
      "type": "event"
    },
    {
      "anonymous": false,
      "inputs": [
        {
          "indexed": true,
          "internalType": "address",
          "name": "from",
          "type": "address"
        },
        {
          "indexed": true,
          "internalType": "address",
          "name": "to",
          "type": "address"
        },
        {
          "indexed": true,
          "internalType": "uint256",
          "name": "tokenId",
          "type": "uint256"
        }
      ],
      "name": "Transfer",
      "type": "event"
    },
    {
      "inputs": [],
      "name": "PRICE",
      "outputs": [
        {
          "internalType": "uint256",
          "name": "",
          "type": "uint256"
        }
      ],
      "stateMutability": "view",
      "type": "function"
    },
    {
      "inputs": [
        {
          "internalType": "address",
          "name": "to",
          "type": "address"
        },
        {
          "internalType": "uint256",
          "name": "tokenId",
          "type": "uint256"
        }
      ],
      "name": "approve",
      "outputs": [],
      "stateMutability": "nonpayable",
      "type": "function"
    },
    {
      "inputs": [
        {
          "internalType": "address",
          "name": "owner",
          "type": "address"
        }
      ],
      "name": "balanceOf",
      "outputs": [
        {
          "internalType": "uint256",
          "name": "",
          "type": "uint256"
        }
      ],
      "stateMutability": "view",
      "type": "function"
    },
    {
      "inputs": [
        {
          "internalType": "uint256",
          "name": "tokenId",
          "type": "uint256"
        }
      ],
      "name": "getApproved",
      "outputs": [
        {
          "internalType": "address",
          "name": "",
          "type": "address"
        }
      ],
      "stateMutability": "view",
      "type": "function"
    },
    {
      "inputs": [
        {
          "internalType": "address",
          "name": "owner",
          "type": "address"
        },
        {
          "internalType": "address",
          "name": "operator",
          "type": "address"
        }
      ],
      "name": "isApprovedForAll",
      "outputs": [
        {
          "internalType": "bool",
          "name": "",
          "type": "bool"
        }
      ],
      "stateMutability": "view",
      "type": "function"
    },
    {
      "inputs": [
        {
          "internalType": "string[]",
          "name": "uris",
          "type": "string[]"
        }
      ],
      "name": "mint",
      "outputs": [],
      "stateMutability": "payable",
      "type": "function"
    },
    {
      "inputs": [],
      "name": "name",
      "outputs": [
        {
          "internalType": "string",
          "name": "",
          "type": "string"
        }
      ],
      "stateMutability": "view",
      "type": "function"
    },
    {
      "inputs": [],
      "name": "owner",
      "outputs": [
        {
          "internalType": "address",
          "name": "",
          "type": "address"
        }
      ],
      "stateMutability": "view",
      "type": "function"
    },
    {
      "inputs": [
        {
          "internalType": "uint256",
          "name": "tokenId",
          "type": "uint256"
        }
      ],
      "name": "ownerOf",
      "outputs": [
        {
          "internalType": "address",
          "name": "",
          "type": "address"
        }
      ],
      "stateMutability": "view",
      "type": "function"
    },
    {
      "inputs": [],
      "name": "renounceOwnership",
      "outputs": [],
      "stateMutability": "nonpayable",
      "type": "function"
    },
    {
      "inputs": [
        {
          "internalType": "address",
          "name": "from",
          "type": "address"
        },
        {
          "internalType": "address",
          "name": "to",
          "type": "address"
        },
        {
          "internalType": "uint256",
          "name": "tokenId",
          "type": "uint256"
        }
      ],
      "name": "safeTransferFrom",
      "outputs": [],
      "stateMutability": "nonpayable",
      "type": "function"
    },
    {
      "inputs": [
        {
          "internalType": "address",
          "name": "from",
          "type": "address"
        },
        {
          "internalType": "address",
          "name": "to",
          "type": "address"
        },
        {
          "internalType": "uint256",
          "name": "tokenId",
          "type": "uint256"
        },
        {
          "internalType": "bytes",
          "name": "_data",
          "type": "bytes"
        }
      ],
      "name": "safeTransferFrom",
      "outputs": [],
      "stateMutability": "nonpayable",
      "type": "function"
    },
    {
      "inputs": [],
      "name": "saleIsActive",
      "outputs": [
        {
          "internalType": "bool",
          "name": "",
          "type": "bool"
        }
      ],
      "stateMutability": "view",
      "type": "function"
    },
    {
      "inputs": [
        {
          "internalType": "address",
          "name": "operator",
          "type": "address"
        },
        {
          "internalType": "bool",
          "name": "approved",
          "type": "bool"
        }
      ],
      "name": "setApprovalForAll",
      "outputs": [],
      "stateMutability": "nonpayable",
      "type": "function"
    },
    {
      "inputs": [
        {
          "internalType": "bool",
          "name": "saleIsActive_",
          "type": "bool"
        }
      ],
      "name": "setSaleIsActive",
      "outputs": [],
      "stateMutability": "nonpayable",
      "type": "function"
    },
    {
      "inputs": [
        {
          "internalType": "bytes4",
          "name": "interfaceId",
          "type": "bytes4"
        }
      ],
      "name": "supportsInterface",
      "outputs": [
        {
          "internalType": "bool",
          "name": "",
          "type": "bool"
        }
      ],
      "stateMutability": "view",
      "type": "function"
    },
    {
      "inputs": [],
      "name": "symbol",
      "outputs": [
        {
          "internalType": "string",
          "name": "",
          "type": "string"
        }
      ],
      "stateMutability": "view",
      "type": "function"
    },
    {
      "inputs": [
        {
          "internalType": "uint256",
          "name": "tokenId",
          "type": "uint256"
        }
      ],
      "name": "tokenURI",
      "outputs": [
        {
          "internalType": "string",
          "name": "",
          "type": "string"
        }
      ],
      "stateMutability": "view",
      "type": "function"
    },
    {
      "inputs": [],
      "name": "totalSupply",
      "outputs": [
        {
          "internalType": "uint256",
          "name": "",
          "type": "uint256"
        }
      ],
      "stateMutability": "view",
      "type": "function"
    },
    {
      "inputs": [
        {
          "internalType": "address",
          "name": "from",
          "type": "address"
        },
        {
          "internalType": "address",
          "name": "to",
          "type": "address"
        },
        {
          "internalType": "uint256",
          "name": "tokenId",
          "type": "uint256"
        }
      ],
      "name": "transferFrom",
      "outputs": [],
      "stateMutability": "nonpayable",
      "type": "function"
    },
    {
      "inputs": [
        {
          "internalType": "address",
          "name": "newOwner",
          "type": "address"
        }
      ],
      "name": "transferOwnership",
      "outputs": [],
      "stateMutability": "nonpayable",
      "type": "function"
    },
    {
      "inputs": [],
      "name": "withdraw",
      "outputs": [],
      "stateMutability": "nonpayable",
      "type": "function"
    }
  ],
  "bytecode": "0x60806040526000600a60006101000a81548160ff0219169083151502179055503480156200002c57600080fd5b506040518060400160405280600981526020017f4d696e744d7952756e00000000000000000000000000000000000000000000008152506040518060400160405280600381526020017f4d4d5200000000000000000000000000000000000000000000000000000000008152508160009080519060200190620000b1929190620001c9565b508060019080519060200190620000ca929190620001c9565b5050506001600681905550620000f5620000e9620000fb60201b60201c565b6200010360201b60201c565b620002de565b600033905090565b6000600860009054906101000a900473ffffffffffffffffffffffffffffffffffffffff16905081600860006101000a81548173ffffffffffffffffffffffffffffffffffffffff021916908373ffffffffffffffffffffffffffffffffffffffff1602179055508173ffffffffffffffffffffffffffffffffffffffff168173ffffffffffffffffffffffffffffffffffffffff167f8be0079c531659141344cd1fd0a4f28419497f9722a3daafe3b4186f6b6457e060405160405180910390a35050565b828054620001d790620002a8565b90600052602060002090601f016020900481019282620001fb576000855562000247565b82601f106200021657805160ff191683800117855562000247565b8280016001018555821562000247579182015b828111156200024657825182559160200191906001019062000229565b5b5090506200025691906200025a565b5090565b5b80821115620002755760008160009055506001016200025b565b5090565b7f4e487b7100000000000000000000000000000000000000000000000000000000600052602260045260246000fd5b60006002820490506001821680620002c157607f821691505b60208210811415620002d857620002d762000279565b5b50919050565b61390f80620002ee6000396000f3fe6080604052600436106101355760003560e01c806370a08231116100ab578063a22cb4651161006f578063a22cb465146103f3578063b88d4fde1461041c578063c87b56dd14610445578063e985e9c514610482578063eb8d2444146104bf578063f2fde38b146104ea57610135565b806370a082311461031e578063715018a61461035b5780638d859f3e146103725780638da5cb5b1461039d57806395d89b41146103c857610135565b806318160ddd116100fd57806318160ddd1461023157806323b872dd1461025c5780633ccfd60b1461028557806342842e0e1461029c5780635768f271146102c55780636352211e146102e157610135565b806301ffc9a71461013a57806302c889891461017757806306fdde03146101a0578063081812fc146101cb578063095ea7b314610208575b600080fd5b34801561014657600080fd5b50610161600480360381019061015c919061216b565b610513565b60405161016e91906121b3565b60405180910390f35b34801561018357600080fd5b5061019e600480360381019061019991906121fa565b6105f5565b005b3480156101ac57600080fd5b506101b561068e565b6040516101c291906122c0565b60405180910390f35b3480156101d757600080fd5b506101f260048036038101906101ed9190612318565b610720565b6040516101ff9190612386565b60405180910390f35b34801561021457600080fd5b5061022f600480360381019061022a91906123cd565b6107a5565b005b34801561023d57600080fd5b506102466108bd565b604051610253919061241c565b60405180910390f35b34801561026857600080fd5b50610283600480360381019061027e9190612437565b6108ce565b005b34801561029157600080fd5b5061029a61092e565b005b3480156102a857600080fd5b506102c360048036038101906102be9190612437565b61099d565b005b6102df60048036038101906102da91906126a5565b6109bd565b005b3480156102ed57600080fd5b5061030860048036038101906103039190612318565b610b27565b6040516103159190612386565b60405180910390f35b34801561032a57600080fd5b50610345600480360381019061034091906126ee565b610bd9565b604051610352919061241c565b60405180910390f35b34801561036757600080fd5b50610370610c91565b005b34801561037e57600080fd5b50610387610d19565b604051610394919061241c565b60405180910390f35b3480156103a957600080fd5b506103b2610d24565b6040516103bf9190612386565b60405180910390f35b3480156103d457600080fd5b506103dd610d4e565b6040516103ea91906122c0565b60405180910390f35b3480156103ff57600080fd5b5061041a6004803603810190610415919061271b565b610de0565b005b34801561042857600080fd5b50610443600480360381019061043e91906127fc565b610df6565b005b34801561045157600080fd5b5061046c60048036038101906104679190612318565b610e58565b60405161047991906122c0565b60405180910390f35b34801561048e57600080fd5b506104a960048036038101906104a4919061287f565b610e6a565b6040516104b691906121b3565b60405180910390f35b3480156104cb57600080fd5b506104d4610efe565b6040516104e191906121b3565b60405180910390f35b3480156104f657600080fd5b50610511600480360381019061050c91906126ee565b610f11565b005b60007f80ac58cd000000000000000000000000000000000000000000000000000000007bffffffffffffffffffffffffffffffffffffffffffffffffffffffff1916827bffffffffffffffffffffffffffffffffffffffffffffffffffffffff191614806105de57507f5b5e139f000000000000000000000000000000000000000000000000000000007bffffffffffffffffffffffffffffffffffffffffffffffffffffffff1916827bffffffffffffffffffffffffffffffffffffffffffffffffffffffff1916145b806105ee57506105ed82611009565b5b9050919050565b6105fd611073565b73ffffffffffffffffffffffffffffffffffffffff1661061b610d24565b73ffffffffffffffffffffffffffffffffffffffff1614610671576040517f08c379a00000000000000000000000000000000000000000000000000000000081526004016106689061290b565b60405180910390fd5b80600a60006101000a81548160ff02191690831515021790555050565b60606000805461069d9061295a565b80601f01602080910402602001604051908101604052809291908181526020018280546106c99061295a565b80156107165780601f106106eb57610100808354040283529160200191610716565b820191906000526020600020905b8154815290600101906020018083116106f957829003601f168201915b5050505050905090565b600061072b8261107b565b61076a576040517f08c379a0000000000000000000000000000000000000000000000000000000008152600401610761906129fe565b60405180910390fd5b6004600083815260200190815260200160002060009054906101000a900473ffffffffffffffffffffffffffffffffffffffff169050919050565b60006107b082610b27565b90508073ffffffffffffffffffffffffffffffffffffffff168373ffffffffffffffffffffffffffffffffffffffff161415610821576040517f08c379a000000000000000000000000000000000000000000000000000000000815260040161081890612a90565b60405180910390fd5b8073ffffffffffffffffffffffffffffffffffffffff16610840611073565b73ffffffffffffffffffffffffffffffffffffffff16148061086f575061086e81610869611073565b610e6a565b5b6108ae576040517f08c379a00000000000000000000000000000000000000000000000000000000081526004016108a590612b22565b60405180910390fd5b6108b883836110e7565b505050565b60006108c960096111a0565b905090565b6108df6108d9611073565b826111ae565b61091e576040517f08c379a000000000000000000000000000000000000000000000000000000000815260040161091590612bb4565b60405180910390fd5b61092983838361128c565b505050565b60026006541415610974576040517f08c379a000000000000000000000000000000000000000000000000000000000815260040161096b90612c20565b60405180910390fd5b6002600681905550600047905061099261098c610d24565b826114e8565b506001600681905550565b6109b883838360405180602001604052806000815250610df6565b505050565b60026006541415610a03576040517f08c379a00000000000000000000000000000000000000000000000000000000081526004016109fa90612c20565b60405180910390fd5b6002600681905550600a60009054906101000a900460ff16610a5a576040517f08c379a0000000000000000000000000000000000000000000000000000000008152600401610a5190612c8c565b60405180910390fd5b80516611c37937e08000610a6e9190612cdb565b341015610ab0576040517f08c379a0000000000000000000000000000000000000000000000000000000008152600401610aa790612da7565b60405180910390fd5b60005b8151811015610b1b576000610ac66108bd565b9050610ad9610ad3611073565b826115dc565b610afd81848481518110610af057610aef612dc7565b5b60200260200101516115fa565b610b07600961166e565b508080610b1390612df6565b915050610ab3565b50600160068190555050565b6000806002600084815260200190815260200160002060009054906101000a900473ffffffffffffffffffffffffffffffffffffffff169050600073ffffffffffffffffffffffffffffffffffffffff168173ffffffffffffffffffffffffffffffffffffffff161415610bd0576040517f08c379a0000000000000000000000000000000000000000000000000000000008152600401610bc790612eb1565b60405180910390fd5b80915050919050565b60008073ffffffffffffffffffffffffffffffffffffffff168273ffffffffffffffffffffffffffffffffffffffff161415610c4a576040517f08c379a0000000000000000000000000000000000000000000000000000000008152600401610c4190612f43565b60405180910390fd5b600360008373ffffffffffffffffffffffffffffffffffffffff1673ffffffffffffffffffffffffffffffffffffffff168152602001908152602001600020549050919050565b610c99611073565b73ffffffffffffffffffffffffffffffffffffffff16610cb7610d24565b73ffffffffffffffffffffffffffffffffffffffff1614610d0d576040517f08c379a0000000000000000000000000000000000000000000000000000000008152600401610d049061290b565b60405180910390fd5b610d176000611684565b565b6611c37937e0800081565b6000600860009054906101000a900473ffffffffffffffffffffffffffffffffffffffff16905090565b606060018054610d5d9061295a565b80601f0160208091040260200160405190810160405280929190818152602001828054610d899061295a565b8015610dd65780601f10610dab57610100808354040283529160200191610dd6565b820191906000526020600020905b815481529060010190602001808311610db957829003601f168201915b5050505050905090565b610df2610deb611073565b838361174a565b5050565b610e07610e01611073565b836111ae565b610e46576040517f08c379a0000000000000000000000000000000000000000000000000000000008152600401610e3d90612bb4565b60405180910390fd5b610e52848484846118b7565b50505050565b6060610e6382611913565b9050919050565b6000600560008473ffffffffffffffffffffffffffffffffffffffff1673ffffffffffffffffffffffffffffffffffffffff16815260200190815260200160002060008373ffffffffffffffffffffffffffffffffffffffff1673ffffffffffffffffffffffffffffffffffffffff16815260200190815260200160002060009054906101000a900460ff16905092915050565b600a60009054906101000a900460ff1681565b610f19611073565b73ffffffffffffffffffffffffffffffffffffffff16610f37610d24565b73ffffffffffffffffffffffffffffffffffffffff1614610f8d576040517f08c379a0000000000000000000000000000000000000000000000000000000008152600401610f849061290b565b60405180910390fd5b600073ffffffffffffffffffffffffffffffffffffffff168173ffffffffffffffffffffffffffffffffffffffff161415610ffd576040517f08c379a0000000000000000000000000000000000000000000000000000000008152600401610ff490612fd5565b60405180910390fd5b61100681611684565b50565b60007f01ffc9a7000000000000000000000000000000000000000000000000000000007bffffffffffffffffffffffffffffffffffffffffffffffffffffffff1916827bffffffffffffffffffffffffffffffffffffffffffffffffffffffff1916149050919050565b600033905090565b60008073ffffffffffffffffffffffffffffffffffffffff166002600084815260200190815260200160002060009054906101000a900473ffffffffffffffffffffffffffffffffffffffff1673ffffffffffffffffffffffffffffffffffffffff1614159050919050565b816004600083815260200190815260200160002060006101000a81548173ffffffffffffffffffffffffffffffffffffffff021916908373ffffffffffffffffffffffffffffffffffffffff160217905550808273ffffffffffffffffffffffffffffffffffffffff1661115a83610b27565b73ffffffffffffffffffffffffffffffffffffffff167f8c5be1e5ebec7d5bd14f71427d1e84f3dd0314c0f7b2291e5b200ac8c7c3b92560405160405180910390a45050565b600081600001549050919050565b60006111b98261107b565b6111f8576040517f08c379a00000000000000000000000000000000000000000000000000000000081526004016111ef90613067565b60405180910390fd5b600061120383610b27565b90508073ffffffffffffffffffffffffffffffffffffffff168473ffffffffffffffffffffffffffffffffffffffff16148061127257508373ffffffffffffffffffffffffffffffffffffffff1661125a84610720565b73ffffffffffffffffffffffffffffffffffffffff16145b8061128357506112828185610e6a565b5b91505092915050565b8273ffffffffffffffffffffffffffffffffffffffff166112ac82610b27565b73ffffffffffffffffffffffffffffffffffffffff1614611302576040517f08c379a00000000000000000000000000000000000000000000000000000000081526004016112f9906130f9565b60405180910390fd5b600073ffffffffffffffffffffffffffffffffffffffff168273ffffffffffffffffffffffffffffffffffffffff161415611372576040517f08c379a00000000000000000000000000000000000000000000000000000000081526004016113699061318b565b60405180910390fd5b61137d838383611a65565b6113886000826110e7565b6001600360008573ffffffffffffffffffffffffffffffffffffffff1673ffffffffffffffffffffffffffffffffffffffff16815260200190815260200160002060008282546113d891906131ab565b925050819055506001600360008473ffffffffffffffffffffffffffffffffffffffff1673ffffffffffffffffffffffffffffffffffffffff168152602001908152602001600020600082825461142f91906131df565b92505081905550816002600083815260200190815260200160002060006101000a81548173ffffffffffffffffffffffffffffffffffffffff021916908373ffffffffffffffffffffffffffffffffffffffff160217905550808273ffffffffffffffffffffffffffffffffffffffff168473ffffffffffffffffffffffffffffffffffffffff167fddf252ad1be2c89b69c2b068fc378daa952ba7f163c4a11628f55a4df523b3ef60405160405180910390a4505050565b8047101561152b576040517f08c379a000000000000000000000000000000000000000000000000000000000815260040161152290613281565b60405180910390fd5b60008273ffffffffffffffffffffffffffffffffffffffff1682604051611551906132d2565b60006040518083038185875af1925050503d806000811461158e576040519150601f19603f3d011682016040523d82523d6000602084013e611593565b606091505b50509050806115d7576040517f08c379a00000000000000000000000000000000000000000000000000000000081526004016115ce90613359565b60405180910390fd5b505050565b6115f6828260405180602001604052806000815250611a6a565b5050565b6116038261107b565b611642576040517f08c379a0000000000000000000000000000000000000000000000000000000008152600401611639906133eb565b60405180910390fd5b8060076000848152602001908152602001600020908051906020019061166992919061205c565b505050565b6001816000016000828254019250508190555050565b6000600860009054906101000a900473ffffffffffffffffffffffffffffffffffffffff16905081600860006101000a81548173ffffffffffffffffffffffffffffffffffffffff021916908373ffffffffffffffffffffffffffffffffffffffff1602179055508173ffffffffffffffffffffffffffffffffffffffff168173ffffffffffffffffffffffffffffffffffffffff167f8be0079c531659141344cd1fd0a4f28419497f9722a3daafe3b4186f6b6457e060405160405180910390a35050565b8173ffffffffffffffffffffffffffffffffffffffff168373ffffffffffffffffffffffffffffffffffffffff1614156117b9576040517f08c379a00000000000000000000000000000000000000000000000000000000081526004016117b090613457565b60405180910390fd5b80600560008573ffffffffffffffffffffffffffffffffffffffff1673ffffffffffffffffffffffffffffffffffffffff16815260200190815260200160002060008473ffffffffffffffffffffffffffffffffffffffff1673ffffffffffffffffffffffffffffffffffffffff16815260200190815260200160002060006101000a81548160ff0219169083151502179055508173ffffffffffffffffffffffffffffffffffffffff168373ffffffffffffffffffffffffffffffffffffffff167f17307eab39ab6107e8899845ad3d59bd9653f200f220920489ca2b5937696c31836040516118aa91906121b3565b60405180910390a3505050565b6118c284848461128c565b6118ce84848484611ac5565b61190d576040517f08c379a0000000000000000000000000000000000000000000000000000000008152600401611904906134e9565b60405180910390fd5b50505050565b606061191e8261107b565b61195d576040517f08c379a00000000000000000000000000000000000000000000000000000000081526004016119549061357b565b60405180910390fd5b600060076000848152602001908152602001600020805461197d9061295a565b80601f01602080910402602001604051908101604052809291908181526020018280546119a99061295a565b80156119f65780601f106119cb576101008083540402835291602001916119f6565b820191906000526020600020905b8154815290600101906020018083116119d957829003601f168201915b505050505090506000611a07611c5c565b9050600081511415611a1d578192505050611a60565b600082511115611a52578082604051602001611a3a9291906135d7565b60405160208183030381529060405292505050611a60565b611a5b84611c73565b925050505b919050565b505050565b611a748383611d1a565b611a816000848484611ac5565b611ac0576040517f08c379a0000000000000000000000000000000000000000000000000000000008152600401611ab7906134e9565b60405180910390fd5b505050565b6000611ae68473ffffffffffffffffffffffffffffffffffffffff16611ee8565b15611c4f578373ffffffffffffffffffffffffffffffffffffffff1663150b7a02611b0f611073565b8786866040518563ffffffff1660e01b8152600401611b319493929190613650565b602060405180830381600087803b158015611b4b57600080fd5b505af1925050508015611b7c57506040513d601f19601f82011682018060405250810190611b7991906136b1565b60015b611bff573d8060008114611bac576040519150601f19603f3d011682016040523d82523d6000602084013e611bb1565b606091505b50600081511415611bf7576040517f08c379a0000000000000000000000000000000000000000000000000000000008152600401611bee906134e9565b60405180910390fd5b805181602001fd5b63150b7a0260e01b7bffffffffffffffffffffffffffffffffffffffffffffffffffffffff1916817bffffffffffffffffffffffffffffffffffffffffffffffffffffffff191614915050611c54565b600190505b949350505050565b606060405180602001604052806000815250905090565b6060611c7e8261107b565b611cbd576040517f08c379a0000000000000000000000000000000000000000000000000000000008152600401611cb490613750565b60405180910390fd5b6000611cc7611c5c565b90506000815111611ce75760405180602001604052806000815250611d12565b80611cf184611efb565b604051602001611d029291906135d7565b6040516020818303038152906040525b915050919050565b600073ffffffffffffffffffffffffffffffffffffffff168273ffffffffffffffffffffffffffffffffffffffff161415611d8a576040517f08c379a0000000000000000000000000000000000000000000000000000000008152600401611d81906137bc565b60405180910390fd5b611d938161107b565b15611dd3576040517f08c379a0000000000000000000000000000000000000000000000000000000008152600401611dca90613828565b60405180910390fd5b611ddf60008383611a65565b6001600360008473ffffffffffffffffffffffffffffffffffffffff1673ffffffffffffffffffffffffffffffffffffffff1681526020019081526020016000206000828254611e2f91906131df565b92505081905550816002600083815260200190815260200160002060006101000a81548173ffffffffffffffffffffffffffffffffffffffff021916908373ffffffffffffffffffffffffffffffffffffffff160217905550808273ffffffffffffffffffffffffffffffffffffffff16600073ffffffffffffffffffffffffffffffffffffffff167fddf252ad1be2c89b69c2b068fc378daa952ba7f163c4a11628f55a4df523b3ef60405160405180910390a45050565b600080823b905060008111915050919050565b60606000821415611f43576040518060400160405280600181526020017f30000000000000000000000000000000000000000000000000000000000000008152509050612057565b600082905060005b60008214611f75578080611f5e90612df6565b915050600a82611f6e9190613877565b9150611f4b565b60008167ffffffffffffffff811115611f9157611f9061248f565b5b6040519080825280601f01601f191660200182016040528015611fc35781602001600182028036833780820191505090505b5090505b6000851461205057600182611fdc91906131ab565b9150600a85611feb91906138a8565b6030611ff791906131df565b60f81b81838151811061200d5761200c612dc7565b5b60200101907effffffffffffffffffffffffffffffffffffffffffffffffffffffffffffff1916908160001a905350600a856120499190613877565b9450611fc7565b8093505050505b919050565b8280546120689061295a565b90600052602060002090601f01602090048101928261208a57600085556120d1565b82601f106120a357805160ff19168380011785556120d1565b828001600101855582156120d1579182015b828111156120d05782518255916020019190600101906120b5565b5b5090506120de91906120e2565b5090565b5b808211156120fb5760008160009055506001016120e3565b5090565b6000604051905090565b600080fd5b600080fd5b60007fffffffff0000000000000000000000000000000000000000000000000000000082169050919050565b61214881612113565b811461215357600080fd5b50565b6000813590506121658161213f565b92915050565b60006020828403121561218157612180612109565b5b600061218f84828501612156565b91505092915050565b60008115159050919050565b6121ad81612198565b82525050565b60006020820190506121c860008301846121a4565b92915050565b6121d781612198565b81146121e257600080fd5b50565b6000813590506121f4816121ce565b92915050565b6000602082840312156122105761220f612109565b5b600061221e848285016121e5565b91505092915050565b600081519050919050565b600082825260208201905092915050565b60005b83811015612261578082015181840152602081019050612246565b83811115612270576000848401525b50505050565b6000601f19601f8301169050919050565b600061229282612227565b61229c8185612232565b93506122ac818560208601612243565b6122b581612276565b840191505092915050565b600060208201905081810360008301526122da8184612287565b905092915050565b6000819050919050565b6122f5816122e2565b811461230057600080fd5b50565b600081359050612312816122ec565b92915050565b60006020828403121561232e5761232d612109565b5b600061233c84828501612303565b91505092915050565b600073ffffffffffffffffffffffffffffffffffffffff82169050919050565b600061237082612345565b9050919050565b61238081612365565b82525050565b600060208201905061239b6000830184612377565b92915050565b6123aa81612365565b81146123b557600080fd5b50565b6000813590506123c7816123a1565b92915050565b600080604083850312156123e4576123e3612109565b5b60006123f2858286016123b8565b925050602061240385828601612303565b9150509250929050565b612416816122e2565b82525050565b6000602082019050612431600083018461240d565b92915050565b6000806000606084860312156124505761244f612109565b5b600061245e868287016123b8565b935050602061246f868287016123b8565b925050604061248086828701612303565b9150509250925092565b600080fd5b7f4e487b7100000000000000000000000000000000000000000000000000000000600052604160045260246000fd5b6124c782612276565b810181811067ffffffffffffffff821117156124e6576124e561248f565b5b80604052505050565b60006124f96120ff565b905061250582826124be565b919050565b600067ffffffffffffffff8211156125255761252461248f565b5b602082029050602081019050919050565b600080fd5b600080fd5b600067ffffffffffffffff82111561255b5761255a61248f565b5b61256482612276565b9050602081019050919050565b82818337600083830152505050565b600061259361258e84612540565b6124ef565b9050828152602081018484840111156125af576125ae61253b565b5b6125ba848285612571565b509392505050565b600082601f8301126125d7576125d661248a565b5b81356125e7848260208601612580565b91505092915050565b60006126036125fe8461250a565b6124ef565b9050808382526020820190506020840283018581111561262657612625612536565b5b835b8181101561266d57803567ffffffffffffffff81111561264b5761264a61248a565b5b80860161265889826125c2565b85526020850194505050602081019050612628565b5050509392505050565b600082601f83011261268c5761268b61248a565b5b813561269c8482602086016125f0565b91505092915050565b6000602082840312156126bb576126ba612109565b5b600082013567ffffffffffffffff8111156126d9576126d861210e565b5b6126e584828501612677565b91505092915050565b60006020828403121561270457612703612109565b5b6000612712848285016123b8565b91505092915050565b6000806040838503121561273257612731612109565b5b6000612740858286016123b8565b9250506020612751858286016121e5565b9150509250929050565b600067ffffffffffffffff8211156127765761277561248f565b5b61277f82612276565b9050602081019050919050565b600061279f61279a8461275b565b6124ef565b9050828152602081018484840111156127bb576127ba61253b565b5b6127c6848285612571565b509392505050565b600082601f8301126127e3576127e261248a565b5b81356127f384826020860161278c565b91505092915050565b6000806000806080858703121561281657612815612109565b5b6000612824878288016123b8565b9450506020612835878288016123b8565b935050604061284687828801612303565b925050606085013567ffffffffffffffff8111156128675761286661210e565b5b612873878288016127ce565b91505092959194509250565b6000806040838503121561289657612895612109565b5b60006128a4858286016123b8565b92505060206128b5858286016123b8565b9150509250929050565b7f4f776e61626c653a2063616c6c6572206973206e6f7420746865206f776e6572600082015250565b60006128f5602083612232565b9150612900826128bf565b602082019050919050565b60006020820190508181036000830152612924816128e8565b9050919050565b7f4e487b7100000000000000000000000000000000000000000000000000000000600052602260045260246000fd5b6000600282049050600182168061297257607f821691505b602082108114156129865761298561292b565b5b50919050565b7f4552433732313a20617070726f76656420717565727920666f72206e6f6e657860008201527f697374656e7420746f6b656e0000000000000000000000000000000000000000602082015250565b60006129e8602c83612232565b91506129f38261298c565b604082019050919050565b60006020820190508181036000830152612a17816129db565b9050919050565b7f4552433732313a20617070726f76616c20746f2063757272656e74206f776e6560008201527f7200000000000000000000000000000000000000000000000000000000000000602082015250565b6000612a7a602183612232565b9150612a8582612a1e565b604082019050919050565b60006020820190508181036000830152612aa981612a6d565b9050919050565b7f4552433732313a20617070726f76652063616c6c6572206973206e6f74206f7760008201527f6e6572206e6f7220617070726f76656420666f7220616c6c0000000000000000602082015250565b6000612b0c603883612232565b9150612b1782612ab0565b604082019050919050565b60006020820190508181036000830152612b3b81612aff565b9050919050565b7f4552433732313a207472616e736665722063616c6c6572206973206e6f74206f60008201527f776e6572206e6f7220617070726f766564000000000000000000000000000000602082015250565b6000612b9e603183612232565b9150612ba982612b42565b604082019050919050565b60006020820190508181036000830152612bcd81612b91565b9050919050565b7f5265656e7472616e637947756172643a207265656e7472616e742063616c6c00600082015250565b6000612c0a601f83612232565b9150612c1582612bd4565b602082019050919050565b60006020820190508181036000830152612c3981612bfd565b9050919050565b7f53616c65206e6f74206163746976650000000000000000000000000000000000600082015250565b6000612c76600f83612232565b9150612c8182612c40565b602082019050919050565b60006020820190508181036000830152612ca581612c69565b9050919050565b7f4e487b7100000000000000000000000000000000000000000000000000000000600052601160045260246000fd5b6000612ce6826122e2565b9150612cf1836122e2565b9250817fffffffffffffffffffffffffffffffffffffffffffffffffffffffffffffffff0483118215151615612d2a57612d29612cac565b5b828202905092915050565b7f496e73756666696369656e74207061796d656e742c20302e303035204554482060008201527f706572206974656d000000000000000000000000000000000000000000000000602082015250565b6000612d91602883612232565b9150612d9c82612d35565b604082019050919050565b60006020820190508181036000830152612dc081612d84565b9050919050565b7f4e487b7100000000000000000000000000000000000000000000000000000000600052603260045260246000fd5b6000612e01826122e2565b91507fffffffffffffffffffffffffffffffffffffffffffffffffffffffffffffffff821415612e3457612e33612cac565b5b600182019050919050565b7f4552433732313a206f776e657220717565727920666f72206e6f6e657869737460008201527f656e7420746f6b656e0000000000000000000000000000000000000000000000602082015250565b6000612e9b602983612232565b9150612ea682612e3f565b604082019050919050565b60006020820190508181036000830152612eca81612e8e565b9050919050565b7f4552433732313a2062616c616e636520717565727920666f7220746865207a6560008201527f726f206164647265737300000000000000000000000000000000000000000000602082015250565b6000612f2d602a83612232565b9150612f3882612ed1565b604082019050919050565b60006020820190508181036000830152612f5c81612f20565b9050919050565b7f4f776e61626c653a206e6577206f776e657220697320746865207a65726f206160008201527f6464726573730000000000000000000000000000000000000000000000000000602082015250565b6000612fbf602683612232565b9150612fca82612f63565b604082019050919050565b60006020820190508181036000830152612fee81612fb2565b9050919050565b7f4552433732313a206f70657261746f7220717565727920666f72206e6f6e657860008201527f697374656e7420746f6b656e0000000000000000000000000000000000000000602082015250565b6000613051602c83612232565b915061305c82612ff5565b604082019050919050565b6000602082019050818103600083015261308081613044565b9050919050565b7f4552433732313a207472616e73666572206f6620746f6b656e2074686174206960008201527f73206e6f74206f776e0000000000000000000000000000000000000000000000602082015250565b60006130e3602983612232565b91506130ee82613087565b604082019050919050565b60006020820190508181036000830152613112816130d6565b9050919050565b7f4552433732313a207472616e7366657220746f20746865207a65726f2061646460008201527f7265737300000000000000000000000000000000000000000000000000000000602082015250565b6000613175602483612232565b915061318082613119565b604082019050919050565b600060208201905081810360008301526131a481613168565b9050919050565b60006131b6826122e2565b91506131c1836122e2565b9250828210156131d4576131d3612cac565b5b828203905092915050565b60006131ea826122e2565b91506131f5836122e2565b9250827fffffffffffffffffffffffffffffffffffffffffffffffffffffffffffffffff0382111561322a57613229612cac565b5b828201905092915050565b7f416464726573733a20696e73756666696369656e742062616c616e6365000000600082015250565b600061326b601d83612232565b915061327682613235565b602082019050919050565b6000602082019050818103600083015261329a8161325e565b9050919050565b600081905092915050565b50565b60006132bc6000836132a1565b91506132c7826132ac565b600082019050919050565b60006132dd826132af565b9150819050919050565b7f416464726573733a20756e61626c6520746f2073656e642076616c75652c207260008201527f6563697069656e74206d61792068617665207265766572746564000000000000602082015250565b6000613343603a83612232565b915061334e826132e7565b604082019050919050565b6000602082019050818103600083015261337281613336565b9050919050565b7f45524337323155524953746f726167653a2055524920736574206f66206e6f6e60008201527f6578697374656e7420746f6b656e000000000000000000000000000000000000602082015250565b60006133d5602e83612232565b91506133e082613379565b604082019050919050565b60006020820190508181036000830152613404816133c8565b9050919050565b7f4552433732313a20617070726f766520746f2063616c6c657200000000000000600082015250565b6000613441601983612232565b915061344c8261340b565b602082019050919050565b6000602082019050818103600083015261347081613434565b9050919050565b7f4552433732313a207472616e7366657220746f206e6f6e20455243373231526560008201527f63656976657220696d706c656d656e7465720000000000000000000000000000602082015250565b60006134d3603283612232565b91506134de82613477565b604082019050919050565b60006020820190508181036000830152613502816134c6565b9050919050565b7f45524337323155524953746f726167653a2055524920717565727920666f722060008201527f6e6f6e6578697374656e7420746f6b656e000000000000000000000000000000602082015250565b6000613565603183612232565b915061357082613509565b604082019050919050565b6000602082019050818103600083015261359481613558565b9050919050565b600081905092915050565b60006135b182612227565b6135bb818561359b565b93506135cb818560208601612243565b80840191505092915050565b60006135e382856135a6565b91506135ef82846135a6565b91508190509392505050565b600081519050919050565b600082825260208201905092915050565b6000613622826135fb565b61362c8185613606565b935061363c818560208601612243565b61364581612276565b840191505092915050565b60006080820190506136656000830187612377565b6136726020830186612377565b61367f604083018561240d565b81810360608301526136918184613617565b905095945050505050565b6000815190506136ab8161213f565b92915050565b6000602082840312156136c7576136c6612109565b5b60006136d58482850161369c565b91505092915050565b7f4552433732314d657461646174613a2055524920717565727920666f72206e6f60008201527f6e6578697374656e7420746f6b656e0000000000000000000000000000000000602082015250565b600061373a602f83612232565b9150613745826136de565b604082019050919050565b600060208201905081810360008301526137698161372d565b9050919050565b7f4552433732313a206d696e7420746f20746865207a65726f2061646472657373600082015250565b60006137a6602083612232565b91506137b182613770565b602082019050919050565b600060208201905081810360008301526137d581613799565b9050919050565b7f4552433732313a20746f6b656e20616c7265616479206d696e74656400000000600082015250565b6000613812601c83612232565b915061381d826137dc565b602082019050919050565b6000602082019050818103600083015261384181613805565b9050919050565b7f4e487b7100000000000000000000000000000000000000000000000000000000600052601260045260246000fd5b6000613882826122e2565b915061388d836122e2565b92508261389d5761389c613848565b5b828204905092915050565b60006138b3826122e2565b91506138be836122e2565b9250826138ce576138cd613848565b5b82820690509291505056fea2646970667358221220a045afd2102a1b36883e57f73fc58841539e9c0014ab5b80cb7865e30d97536064736f6c63430008090033",
  "linkReferences": {},
  "deployedLinkReferences": {}
}